{
  "contractName": "Marketplace",
  "abi": [
    {
      "constant": true,
      "inputs": [
        {
          "name": "",
          "type": "uint256"
        }
      ],
      "name": "articles",
      "outputs": [
        {
          "name": "id",
          "type": "uint256"
        },
        {
          "name": "price",
          "type": "uint256"
        },
        {
          "name": "seller",
          "type": "address"
        },
        {
          "name": "buyer",
          "type": "address"
        },
        {
          "name": "name",
          "type": "string"
        },
        {
          "name": "description",
          "type": "string"
        }
      ],
      "payable": false,
      "stateMutability": "view",
      "type": "function"
    },
    {
      "inputs": [],
      "payable": false,
      "stateMutability": "nonpayable",
      "type": "constructor"
    },
    {
      "anonymous": false,
      "inputs": [
        {
          "indexed": false,
          "name": "_id",
          "type": "uint256"
        },
        {
          "indexed": false,
          "name": "_seller",
          "type": "address"
        },
        {
          "indexed": false,
          "name": "_name",
          "type": "string"
        },
        {
          "indexed": false,
          "name": "_price",
          "type": "uint256"
        }
      ],
      "name": "sellArticleEvent",
      "type": "event"
    },
    {
      "constant": false,
      "inputs": [
        {
          "name": "_name",
          "type": "string"
        },
        {
          "name": "_description",
          "type": "string"
        },
        {
          "name": "_price",
          "type": "uint256"
        }
      ],
      "name": "sellArticle",
      "outputs": [],
      "payable": false,
      "stateMutability": "nonpayable",
      "type": "function"
    },
    {
      "constant": true,
      "inputs": [],
      "name": "getNumberOfArticles",
      "outputs": [
        {
          "name": "",
          "type": "uint256"
        }
      ],
      "payable": false,
      "stateMutability": "view",
      "type": "function"
    }
  ],
  "bytecode": "0x608060405234801561001057600080fd5b50610755806100206000396000f300608060405260043610610057576000357c0100000000000000000000000000000000000000000000000000000000900463ffffffff16806389da85d31461005c578063d260951514610087578063edcfafe6146100e4575b600080fd5b34801561006857600080fd5b5061007161026a565b6040518082815260200191505060405180910390f35b34801561009357600080fd5b506100e260048036038101908080359060200190820180359060200191909192939192939080359060200190820180359060200191909192939192939080359060200190929190505050610274565b005b3480156100f057600080fd5b5061010f600480360381019080803590602001909291905050506104d8565b604051808781526020018681526020018573ffffffffffffffffffffffffffffffffffffffff1673ffffffffffffffffffffffffffffffffffffffff1681526020018473ffffffffffffffffffffffffffffffffffffffff1673ffffffffffffffffffffffffffffffffffffffff1681526020018060200180602001838103835285818151815260200191508051906020019080838360005b838110156101c35780820151818401526020810190506101a8565b50505050905090810190601f1680156101f05780820380516001836020036101000a031916815260200191505b50838103825284818151815260200191508051906020019080838360005b8381101561022957808201518184015260208101905061020e565b50505050905090810190601f1680156102565780820380516001836020036101000a031916815260200191505b509850505050505050505060405180910390f35b6000600154905090565b60016000815480929190600101919050555060c06040519081016040528060015481526020018281526020013373ffffffffffffffffffffffffffffffffffffffff168152602001600073ffffffffffffffffffffffffffffffffffffffff16815260200186868080601f016020809104026020016040519081016040528093929190818152602001838380828437820191505050505050815260200184848080601f0160208091040260200160405190810160405280939291908181526020018383808284378201915050505050508152506000806001548152602001908152602001600020600082015181600001556020820151816001015560408201518160020160006101000a81548173ffffffffffffffffffffffffffffffffffffffff021916908373ffffffffffffffffffffffffffffffffffffffff16021790555060608201518160030160006101000a81548173ffffffffffffffffffffffffffffffffffffffff021916908373ffffffffffffffffffffffffffffffffffffffff1602179055506080820151816004019080519060200190610419929190610684565b5060a0820151816005019080519060200190610436929190610684565b509050507fe6dcabaf37bca305551877dc9bc2cb6019fbb7859c0f74c037077d948fb17c5660015433878785604051808681526020018573ffffffffffffffffffffffffffffffffffffffff1673ffffffffffffffffffffffffffffffffffffffff1681526020018060200183815260200182810382528585828181526020019250808284378201915050965050505050505060405180910390a15050505050565b60006020528060005260406000206000915090508060000154908060010154908060020160009054906101000a900473ffffffffffffffffffffffffffffffffffffffff16908060030160009054906101000a900473ffffffffffffffffffffffffffffffffffffffff1690806004018054600181600116156101000203166002900480601f0160208091040260200160405190810160405280929190818152602001828054600181600116156101000203166002900480156105dc5780601f106105b1576101008083540402835291602001916105dc565b820191906000526020600020905b8154815290600101906020018083116105bf57829003601f168201915b505050505090806005018054600181600116156101000203166002900480601f01602080910402602001604051908101604052809291908181526020018280546001816001161561010002031660029004801561067a5780601f1061064f5761010080835404028352916020019161067a565b820191906000526020600020905b81548152906001019060200180831161065d57829003601f168201915b5050505050905086565b828054600181600116156101000203166002900490600052602060002090601f016020900481019282601f106106c557805160ff19168380011785556106f3565b828001600101855582156106f3579182015b828111156106f25782518255916020019190600101906106d7565b5b5090506107009190610704565b5090565b61072691905b8082111561072257600081600090555060010161070a565b5090565b905600a165627a7a72305820bc8e362e76cdc704cd86546187e5a942127ba9956879eea7bea9770ea5d4c8af0029",
  "source": "pragma solidity ^0.4.23;\n\ncontract Marketplace {\n\n    constructor() public{\n\n    }\n\n    // Custom types\n    struct Article {\n        uint id;\n        uint price;\n        address seller;\n        address buyer;\n        string name;\n        string description;\n    }\n\n    // State variables\n    mapping(uint => Article) public articles;\n    uint articleCounter;\n\n  // Events\n    event sellArticleEvent (\n        uint _id,\n        address _seller,\n        string _name,\n        uint256 _price\n    );\n\n    // sell an article\n    function sellArticle(string _name, string _description, uint _price) external {\n        // a new article\n        articleCounter++;\n\n        // store this article\n        articles[articleCounter] = Article(\n            articleCounter,\n            _price,\n            msg.sender,\n            0x0,\n            _name,\n            _description\n        );\n\n        // trigger the event\n        emit sellArticleEvent(articleCounter, msg.sender, _name, _price);\n    }\n\n    // fetch the number of articles in the contract\n    function getNumberOfArticles() external view returns (uint) {\n        return articleCounter;\n    }\n\n}\n",
  "sourcePath": "/Users/kungelamzuku/Desktop/MarketPlaceSolution/contracts/Marketplace.sol",
  "compiler": {
    "name": "solc",
    "version": "0.4.24+commit.e67f0147.Emscripten.clang"
  },
  "schemaVersion": "2.0.1",
  "updatedAt": "2018-06-26T10:26:37.359Z"
}